:020000040000FA
:0400000036EF9FF048
:10F41C0000000000007C00FE1BFE1B7C00000000B6
:10F42C000000000E001E00000000001E000E000078
:10F43C00002001FC0FFC0F20012001FC0FFC0F2011
:10F44C000138067C0C4408FF3FFF3F84088C0F18E2
:10F45C00071C18141E9C07E001781C1E14061C00C7
:10F46C0000BC1FFE104210C210FE1F3C0F80198002
:10F47C00100000000010001E000E00000000000034
:10F48C000000000000F007FC1F0E380220000000F6
:10F49C00000000000002200E38FC1FF007000000E6
:10F4AC00008000A002E003C001C001E003A00280C4
:10F4BC0000800080008000E003E00380008000807A
:10F4CC000000000000004000780038000000000040
:10F4DC000080008000800080008000800080008020
:10F4EC0000000000000000001800180000000000E0
:10F4FC00000018001E8007E00178001E00060000C6
:10F50C0000F807FC0F0618C210C2100618FC0FF802
:10F51C0007000008100C10FE1FFE1F00100010004A
:10F52C0000041C061E02138211C21062103E181C2D
:10F53C0018040806180210421042104210FE1FBC9C
:10F54C000FC001E001300118010C11FE1FFE1F005D
:10F55C00117E087E184210421042104210C21F82C7
:10F56C000FF80FFC1F4610421042104210C01F80B3
:10F57C000F060006000200021FC21FF2003E000E22
:10F58C0000BC0FFE1F4210421042104210FE1FBC66
:10F59C000F3C007E104210421042104218FE0FFC2D
:10F5AC0007000000000000300C300C0000000000D0
:10F5BC0000000000000020603C601C000000000007
:10F5CC00008000C00160033006180C0C18041000F9
:10F5DC000040024002400240024002400240024011
:10F5EC000204100C18180C30066003C001800000D7
:10F5FC0000040006000200821BC21B62003E001CBD
:10F60C0000FC0FFE1F02108211C213E213FE13FC4A
:10F61C0003F01FF81F0C01060106010C01F81FF086
:10F62C001F0210FE1FFE1F421042104210FE1FBC94
:10F63C000FF807FC0F061802100210021006180C27
:10F64C000C0210FE1FFE1F021002100618FC0FF811
:10F65C00070210FE1FFE1F42104210E21006180691
:10F66C00180210FE1FFE1F42104200E200060006A8
:10F67C0000F807FC0F0618021082108210860F8CFF
:10F68C001FFE1FFE1F4000400040004000FE1FFEFA
:10F69C001F000002100210FE1FFE1F0210021000BD
:10F6AC0000000C001C001000100210FE1FFE0F02C8
:10F6BC00000210FE1FFE1FE000B00118030E1E0614
:10F6CC001C0210FE1FFE1F0210001000100018007C
:10F6DC0018FE1FFE1F1800F000F0001800FE1FFEA1
:10F6EC001FFE1FFE1F38007000E000C001FE1FFE51
:10F6FC001FFC0FFE1F0210021002100210FE1FFC56
:10F70C000F0210FE1FFE1F4210420042007E003C02
:10F71C0000FC0FFE1F0210021C02380270FE5FFC80
:10F72C000F0210FE1FFE1F42004200C200FE1F3CD3
:10F73C001F1C0C3E1C621042104210C2108E1F0C7B
:10F74C000F060006000210FE1FFE1F021006000628
:10F75C0000FE0FFE1F0010001000100010FE1FFE18
:10F76C000FFE03FE07000C00180018000CFE07FE2D
:10F77C0003FE07FE1F001CC007C007001CFE1FFE77
:10F78C00070E1C1E1E3003E001E00130031E1E0E8E
:10F79C001C1E003E006010C01FC01F60103E001EEB
:10F7AC0000061E061F8211C210621032101E180EA7
:10F7BC001800000000FE1FFE1F02100210000000C7
:10F7CC00000018001E8007E00178001E00060000F3
:10F7DC00000000000002100210FE1FFE1F000000BF
:10F7EC00002000300018000C001800300020000031
:10F7FC00000080008000800080008000800080007D
:10F80C00800000000000003800780040000000007C
:10F81C0000000E201F201120112011E00FC01F002E
:10F82C00100210FE1FFE0F201020106010C01F8051
:10F83C000FC00FE01F201020102010201060184067
:10F84C0008800FC01F601020102210FE0FFE1F003A
:10F85C0010C00FE01F2011201120112011E019C041
:10F86C000900002010FC1FFE1F22102200060004BD
:10F87C0000C04FE0DF209020902090C0FFE07F2060
:10F88C00000210FE1FFE1F400020002000E01FC0E1
:10F89C001F000020102010EC1FEC1F0010001000A7
:10F8AC0000006000C020802080ECFFEC7F00000096
:10F8BC00000210FE1FFE1F80018003C006601C208A
:10F8CC0018000002100210FE1FFE1F001000100096
:10F8DC0000E01FE01F6000C00FC00F6000E01FC001
:10F8EC001F2000E01FC01F200020002000E01FC0D0
:10F8FC001FC00FE01F2010201020102010E01FC090
:10F90C000F2080E0FFC0FF209020102010E01FC0CF
:10F91C000FC00FE01F201020102090C0FFE0FF2030
:10F92C00802010E01FC01F601020002000600040ED
:10F93C0000C008E0192011201120132012601E4075
:10F94C000C20002000FC0FFE1F20102018000800C7
:10F95C0000E00FE01F001000100010E00FE01F008F
:10F96C0010E003E007000C00180018000CE007E0A2
:10F97C0003E00FE01F0018000F000F0018E01FE05D
:10F98C000F20106018C00C80078007C00C60182076
:10F99C0010E08FE09F00900090009000D0E07FE09E
:10F9AC003F6018601C20162013A011E01060182076
:10F9BC0018000000008000FC1F7E3F022002200087
:10F9CC00000000000000007C3E7C3E0000000000B7
:10F9DC00000000022002207E3FFC1F80000000007F
:10F9EC0000000000F0FF0FFCFF3FFEFF7FFEFF7FDB
:10F9FC00FFFFFFFFFFFF0700E00700E00700E0FF4D
:10FA0C00FFFFFFFFFFFEFF7FFEFF7FFCFF3FF0FFCE
:10FA1C000F00000070000070000070000078000003
:10FA2C00F80000FCFFFFFEFFFFFEFFFFFFFFFFFFE4
:10FA3C00FFFFFFFFFF0000000000000000000000BF
:10FA4C0000000000F800E0FC00F8FE00FEFE80FF65
:10FA5C00FFC0FF07F0FF07FCFF07FFEFFFFFE3FF0F
:10FA6C00FFE1FE7FE0FE3FE0FC0FE0F00300000052
:10FA7C0000000000F8801FFE803FFE807FFF807F2B
:10FA8C00FF80FFFF9CFFFF9CFF071CE0073EE0FF91
:10FA9C00FFFFFFFFFFFEFF7FFEF77FFCF73FF0E36A
:10FAAC001F00F00F00FE0F80FF0FE0FF0FFCBF0FD9
:10FABC00FF870FFF810F3F800FFFFFFFFFFFFFFF4F
:10FACC00FFFFFFFFFFFFFFFFFFFFFF00800F008026
:10FADC000F000000FFC70FFFC73FFFC77FFFC77FA7
:10FAEC00FFC7FFFFC7FF8701E0C701E0C701E0C701
:10FAFC00FFFFC7FFFFC7FF7F87FF7F87FF3F07FE23
:10FB0C001F000000F0FF0FFCFF3FFEFF7FFEFF7F9A
:10FB1C00FFFFFFFFFFFF0706E00707E00707E03FD7
:10FB2C00FFFF3FFFFF3EFF7F3EFE7F3CFE3F38F86E
:10FB3C001F0000000700000700000700C00700F8C6
:10FB4C000700FF07E0FF07FEFFC7FFFFFFFF3FFFB8
:10FB5C00FF07FFFF00FF0F00FF01001F0000000068
:10FB6C0000000000F0E31FFCF73FFEFF7FFEFF7F6D
:10FB7C00FFFFFFFFFFFF071CE0071CE0071CE0FF77
:10FB8C00FFFFFFFFFFFEFF7FFEF77FFCF73FF0E379
:10FB9C001F000000F81F1CFC7F3CFE7F7CFEFF7CDE
:10FBAC00FFFFFCFFFFFC07E0E007E0E00760E0FF81
:10FBBC00FFFFFFFFFFFEFF7FFEFF7FFCFF3FF0FF1D
:10FBCC000F00005F00000007000700147F147F1473
:10FBDC00242A7F2A122313086462364955225000C6
:10FBEC0005030000001C2241000041221C001408E7
:10FBFC003E081408083E08080050300000080808A9
:10FC0C000808006060000020100804023E514945BD
:10FC1C003E00427F400042615149462141454B31F3
:10FC2C001814127F1027454545393C4A4949300183
:10FC3C00710905033649494936064949291E0036DA
:10FC4C00360000005636000008142241001414142B
:10FC5C001414004122140802015109063249794159
:10FC6C003E7E1111117E7F494949363E4141412268
:10FC7C007F4141221C7F494949417F090909013EC5
:10FC8C004149497A7F0808087F00417F41002040A4
:10FC9C00413F017F081422417F404040407F020CCD
:10FCAC00027F7F0408107F3E4141413E7F090909D4
:10FCBC00063E4151215E7F09192946464949493181
:10FCCC0001017F01013F4040403F1F2040201F3F6A
:10FCDC004038403F631408146307087008076151EB
:10FCEC00494543007F414100020408102000414176
:10FCFC007F00040201020440404040400001020425
:10FD0C000020545454787F484444383844444420A8
:10FD1C00384444487F3854545418087E0901020C66
:10FD2C005252523E7F0804047800447D400020402B
:10FD3C00443D007F1028440000417F40007C0418A3
:10FD4C0004787C0804047838444444387C14141433
:10FD5C0008081414187C7C080404084854545420D3
:10FD6C00043F4440203C4040207C1C2040201C3C54
:10FD7C004030403C44281028440C5050503C4464C3
:10FD8C00544C44000836410000007F00000041360E
:10FD9C000800100808100800E0F8FCFE1E07070712
:10FDAC00071EFEFCF8F00000070F3F3F7C707070E0
:10FDBC00707C3F1F1F0700000000060707FFFFFFB6
:10FDCC00FF0000000000000000000000007F7F7FAB
:10FDDC007F00000000000000383C3E3E0F07070784
:10FDEC00CFFFFEFE3800000040406070787C7E7FC4
:10FDFC007773717070000000181C1E1E0FC7C7E7C8
:10FE0C00FFFEBE9C000000000C1C3C3C7870707027
:10FE1C00797F3F1F0F0000000080C0E070381C1E6F
:10FE2C00FFFFFFFF00000006070707060606060691
:10FE3C007F7F7F7F06060000000000F0FFFFFFE7DA
:10FE4C00E7E7E7C7870000000038787170707070C2
:10FE5C0070393F3F1F0F000080E0F0F8FC7F7F6F90
:10FE6C0067E1E1C0800000000F1F3F3F78707070A9
:10FE7C0070783F3F1F0F00000707070707C7E7F71A
:10FE8C00FF7F3F1F0703010020387C7E3F0F0703D5
:10FE9C00000000000000000000001CBEFEFFE7C3D5
:10FEAC00C3E7FFFEBE1C0000000E3F3F7F71606089
:10FEBC0060717F3F3F0F000078FCFEFE8F07070745
:10FECC00078FFEFEFCF800000000014343737B7FAC
:10FEDC007F1F0F07030000FF818181818181818158
:10FEEC008181818181FF3CFF81BDBD8181818181C7
:10FEFC008181818181FF3CFF81BDBD81BDBD81813F
:10FF0C008181818181FF3CFF81BDBD81BDBD81BDF2
:10FF1C00BD81818181FF3CFF81BDBD81BDBD81BDA6
:10FF2C00BD81BDBD81FF3C3C7E8381817E3C0084D4
:10FF3C008482FFFF80800084C6E1A1B19F8E0042C5
:10FF4C00C3818989FF760020382422FFFF20005FBF
:10FF5C00DF998989F970003C7E898989FB720001DF
:10FF6C0001E1F91D0701006EFF898999FF76004EAA
:10FF7C00DF9191917F3E0052616D702073657175B8
:10FF8C00656E63652077696C6C20626500507265E4
:10FF9C0073732028412920746F2070726F6365651C
:10FFAC006400202020202020696E697469617465CA
:10FFBC00642E004C6F772042617474657279210055
:10FFCC0041292052756E3A200042292052756E3A12
:10FFDC00200044656661756C74005245414459219A
:10FFEC00005345543A2000206D6D48670052616DF6
:03FFFC0070000092
:020000040001F9
:100000004DEC9FF0A2EC9EF000016D519EEC9CF037
:10001000000E586E000E576ED8905734D96E583473
:10002000DA6E6F0ED926000EDA22DECF35F0DDCF84
:1000300036F0E3EC9DF08280828218EC91F08284AD
:1000400082869BEC93F048C059F049C05AF04AC0F0
:100050005BF04BC05CF050EF82F0828482869BECB8
:1000600093F048C059F049C05AF04AC05BF04BC009
:100070005CF059C00FF05AC010F05BC011F05CC0CA
:1000800012F0FB0E516EFF0E526ED8905734D96E9F
:100090005834DA6E6F0ED926000EDA22DECF53F016
:1000A000DDCF54F0515053265250542253C001F02A
:1000B00054C002F0000E02BEFF0E036E046E010E6D
:1000C0007BEC94F001C013F002C014F003C015F0F3
:1000D00004C016F0AAEC9AF0D8A071EF80F073EF8C
:1000E00080F075EF80F08AEF82F0010E00016E6FF4
:1000F000020E13EC9DF09BEC93F048C059F049C000
:100100005AF04AC05BF04BC05CF059C00FF05AC0C7
:1001100010F05BC011F05CC012F0FB0E516EFF0ED0
:10012000526ED8905734D96E5834DA6E6F0ED92685
:10013000000EDA22DECF53F0DDCF54F051505326BB
:100140005250542253C001F054C002F0000E02BEBF
:10015000FF0E036E046E010E7BEC94F001C013F0F1
:1001600002C014F003C015F004C016F0AAEC9AF017
:10017000D8A0BDEF80F0BFEF80F0C1EF80F08AEF34
:1001800082F0030E13EC9DF09BEC93F048C059F005
:1001900049C05AF04AC05BF04BC05CF059C00FF048
:1001A0005AC010F05BC011F05CC012F0FB0E516E33
:1001B000FF0E526ED8905734D96E5834DA6E6F0EE7
:1001C000D926000EDA22DECF53F0DDCF54F05150A5
:1001D00053265250542253C001F054C002F0000E76
:1001E00002BEFF0E036E046E010E7BEC94F001C0A4
:1001F00013F002C014F003C015F004C016F0AAEC0E
:100200009AF0D8A006EF81F008EF81F00AEF81F0B4
:100210008AEF82F0040E13EC9DF09BEC93F048C043
:1002200059F049C05AF04AC05BF04BC05CF059C06D
:100230000FF05AC010F05BC011F05CC012F0FB0E62
:10024000516EFF0E526ED8905734D96E5834DA6E14
:100250006F0ED926000EDA22DECF53F0DDCF54F038
:10026000515053265250542253C001F054C002F052
:10027000000E02BEFF0E036E046E010E7BEC94F0C6
:1002800001C013F002C014F003C015F004C016F052
:10029000AAEC9AF0D8A04FEF81F051EF81F053EF24
:1002A00081F08AEF82F0050E13EC9DF09BEC93F049
:1002B00048C059F049C05AF04AC05BF04BC05CF0EE
:1002C00059C00FF05AC010F05BC011F05CC012F0C2
:1002D000FB0E516EFF0E526ED8905734D96E5834C3
:1002E000DA6E6F0ED926000EDA22DECF53F0DDCFA4
:1002F00054F0515053265250542253C001F054C070
:1003000002F0000E02BEFF0E036E046E010E7BECC7
:1003100094F001C013F002C014F003C015F004C043
:1003200016F0AAEC9AF0D8A098EF81F09AEF81F03D
:100330009CEF81F08AEF82F0030E046E320EEDEC3A
:100340009EF09BEC93F048C059F049C05AF04AC067
:100350005BF04BC05CF059C00FF05AC010F05BC0AE
:1003600011F05CC012F0FB0E516EFF0E526ED89071
:100370005734D96E5834DA6E6F0ED926000EDA2251
:10038000DECF53F0DDCF54F051505326525054225B
:1003900053C001F054C002F0000E02BEFF0E036E07
:1003A000046E010E7BEC94F001C013F002C014F057
:1003B00003C015F004C016F0AAEC9AF0D8A0E3EF41
:1003C00081F0E5EF81F0E7EF81F08AEF82F059C02C
:1003D00001F05AC002F05BC003F05CC004F027ECEF
:1003E0009AF001C02CF002C02DF003C02EF004C022
:1003F0002FF0010E306EA0EC99F09BEC93F048C00A
:1004000059F049C05AF04AC05BF04BC05CF059C08B
:100410000FF05AC010F05BC011F05CC012F0FB0E80
:10042000516EFF0E526ED8905734D96E5834DA6E32
:100430006F0ED926000EDA22DECF53F0DDCF54F056
:10044000515053265250542253C001F054C002F070
:10045000000E02BEFF0E036E046E010E7BEC94F0E4
:1004600001C013F002C014F003C015F004C016F070
:10047000AAEC9AF0D8A03FEF82F041EF82F043EF70
:1004800082F08AEF82F081B248EF82F04AEF82F088
:1004900050EF82F08290829282948296D6EF86F01C
:1004A00059C00FF05AC010F05BC011F05CC012F0E0
:1004B000FB0E516EFF0E526ED8905734D96E5834E1
:1004C000DA6E6F0ED926000EDA22DECF53F0DDCFC2
:1004D00054F0515053265250542253C001F054C08E
:1004E00002F0000E02BEFF0E036E046E010E7BECE6
:1004F00094F001C013F002C014F003C015F004C062
:1005000016F0AAEC9AF0D8A088EF82F08AEF82F079
:100510002DEF80F060EC98F08294829659C001F043
:100520005AC002F05BC003F05CC004F027EC9AF004
:1005300001C039F002C03AF080EC9EF0000E566E19
:10054000000E556E56BEAEEF82F0565009E1190E00
:10055000555CD8A0AEEF82F0B0EF82F0B2EF82F03F
:10056000EFEF84F081B2B7EF82F0B9EF82F0BFEF26
:1005700082F08290829282948296D6EF86F09BECF3
:1005800093F048C059F049C05AF04AC05BF04BC0E4
:100590005CF059C00FF05AC010F05BC011F05CC0A5
:1005A00012F0D8905734D96E5834DA6E6F0ED926BF
:1005B000000EDA22DECF01F0DDCF02F0000E02BE27
:1005C000FF0E036E046E010E7BEC94F001C013F07D
:1005D00002C014F003C015F004C016F0AAEC9AF0A3
:1005E000D8B0F5EF82F0F7EF82F004EF83F0828469
:1005F00082860D0E516EFC0EE82EFED7512EFCD7D2
:100600008294829606EF83F082948296020E13EC17
:100610009DF09BEC93F048C059F049C05AF04AC095
:100620005BF04BC05CF059C00FF05AC010F05BC0DB
:1006300011F05CC012F0D8905734D96E5834DA6E8D
:100640006F0ED926000EDA22DECF01F0DDCF02F0E8
:10065000000E02BEFF0E036E046E010E7BEC94F0E2
:1006600001C013F002C014F003C015F004C016F06E
:10067000AAEC9AF0D8B03FEF83F041EF83F04EEF51
:1006800083F0828482860D0E516EFC0EE82EFED71A
:10069000512EFCD78294829650EF83F082948296FA
:1006A000030E13EC9DF09BEC93F048C059F049C049
:1006B0005AF04AC05BF04BC05CF059C00FF05AC012
:1006C00010F05BC011F05CC012F0D8905734D96EB6
:1006D0005834DA6E6F0ED926000EDA22DECF01F022
:1006E000DDCF02F0000E02BEFF0E036E046E010E9F
:1006F0007BEC94F001C013F002C014F003C015F0BD
:1007000004C016F0AAEC9AF0D8B089EF83F08BEF12
:1007100083F098EF83F0828482860D0E516EFC0E7A
:10072000E82EFED7512EFCD7829482969AEF83F062
:1007300082948296040E13EC9DF09BEC93F048C0DB
:1007400059F049C05AF04AC05BF04BC05CF059C048
:100750000FF05AC010F05BC011F05CC012F0D890DE
:100760005734D96E5834DA6E6F0ED926000EDA225D
:10077000DECF01F0DDCF02F0000E02BEFF0E036EF1
:10078000046E010E7BEC94F001C013F002C014F073
:1007900003C015F004C016F0AAEC9AF0D8B0D3EF5D
:1007A00083F0D5EF83F0E2EF83F0828482860D0E32
:1007B000516EFC0EE82EFED7512EFCD78294829605
:1007C000E4EF83F082948296050E13EC9DF09BEC8F
:1007D00093F048C059F049C05AF04AC05BF04BC092
:1007E0005CF059C00FF05AC010F05BC011F05CC053
:1007F00012F0D8905734D96E5834DA6E6F0ED9266D
:10080000000EDA22DECF01F0DDCF02F0000E02BED4
:10081000FF0E036E046E010E7BEC94F001C013F02A
:1008200002C014F003C015F004C016F0AAEC9AF050
:10083000D8B01DEF84F01FEF84F02CEF84F0828499
:1008400082860D0E516EFC0EE82EFED7512EFCD77F
:10085000829482962EEF84F082948296030E046E28
:10086000320EEDEC9EF09BEC93F048C059F049C07D
:100870005AF04AC05BF04BC05CF059C00FF05AC050
:1008800010F05BC011F05CC012F0D8905734D96EF4
:100890005834DA6E6F0ED926000EDA22DECF01F060
:1008A000DDCF02F0000E02BEFF0E036E046E010EDD
:1008B0007BEC94F001C013F002C014F003C015F0FB
:1008C00004C016F0AAEC9AF0D8B069EF84F06BEF90
:1008D00084F078EF84F0828482860D0E516EFC0ED7
:1008E000E82EFED7512EFCD7829482967AEF84F0C0
:1008F0008294829659C001F05AC002F05BC003F0A6
:100900005CC004F027EC9AF001C02CF002C02DF07E
:1009100003C02EF004C02FF0010E306EA0EC99F051
:100920009BEC93F048C059F049C05AF04AC05BF0C4
:100930004BC05CF059C00FF05AC010F05BC011F012
:100940005CC012F0D8905734D96E5834DA6E6F0EFE
:10095000D926000EDA22DECF01F0DDCF02F0000E44
:1009600002BEFF0E036E046E010E7BEC94F001C01C
:1009700013F002C014F003C015F004C016F0AAEC86
:100980009AF0D8B0C6EF84F0C8EF84F0D5EF84F0C9
:10099000828482860D0E516EFC0EE82EFED7512EFB
:1009A000FCD782948296D7EF84F0829482961A0EB6
:1009B000516EF80EE82EFED7512EFCD700D0554AC6
:1009C000562A56BEEDEF84F0565009E1190E555CDB
:1009D000D8A0EDEF84F0EFEF84F0B2EF82F08294D4
:1009E0008296829082929BEC93F048C059F049C065
:1009F0005AF04AC05BF04BC05CF039EF86F09BECDC
:100A000093F048C059F049C05AF04AC05BF04BC05F
:100A10005CF0000E0F6E000E106E000E116E000ED8
:100A2000126E59C013F05AC014F05BC015F05CC0D0
:100A300016F0AAEC9AF0D8A020EF85F022EF85F00E
:100A400024EF85F052EF86F0010E00016E6F020E6A
:100A500013EC9DF09BEC93F048C059F049C05AF05C
:100A60004AC05BF04BC05CF0000E0F6E000E106EC3
:100A7000000E116E000E126E59C013F05AC014F021
:100A80005BC015F05CC016F0AAEC9AF0D8A04BEF52
:100A900085F04DEF85F04FEF85F052EF86F0030EB5
:100AA00013EC9DF09BEC93F048C059F049C05AF00C
:100AB0004AC05BF04BC05CF0000E0F6E000E106E73
:100AC000000E116E000E126E59C013F05AC014F0D1
:100AD0005BC015F05CC016F0AAEC9AF0D8A073EFDA
:100AE00085F075EF85F077EF85F052EF86F0040E14
:100AF00013EC9DF09BEC93F048C059F049C05AF0BC
:100B00004AC05BF04BC05CF0000E0F6E000E106E22
:100B1000000E116E000E126E59C013F05AC014F080
:100B20005BC015F05CC016F0AAEC9AF0D8A09BEF61
:100B300085F09DEF85F09FEF85F052EF86F0050E72
:100B400013EC9DF09BEC93F048C059F049C05AF06B
:100B50004AC05BF04BC05CF0000E0F6E000E106ED2
:100B6000000E116E000E126E59C013F05AC014F030
:100B70005BC015F05CC016F0AAEC9AF0D8A0C3EFE9
:100B800085F0C5EF85F0C7EF85F052EF86F0030ED4
:100B9000046E320EEDEC9EF09BEC93F048C059F0E1
:100BA00049C05AF04AC05BF04BC05CF0000E0F6EBB
:100BB000000E106E000E116E000E126E59C013F072
:100BC0005AC014F05BC015F05CC016F0AAEC9AF0A5
:100BD000D8A0EDEF85F0EFEF85F0F1EF85F052EF63
:100BE00086F059C001F05AC002F05BC003F05CC04F
:100BF00004F027EC9AF001C02CF002C02DF003C0E5
:100C00002EF004C02FF0010E306EA0EC99F09BEC9A
:100C100093F048C059F049C05AF04AC05BF04BC04D
:100C20005CF0000E0F6E000E106E000E116E000EC6
:100C3000126E59C013F05AC014F05BC015F05CC0BE
:100C400016F0AAEC9AF0D8A028EF86F02AEF86F0EA
:100C50002CEF86F052EF86F081B231EF86F033EF61
:100C600086F039EF86F08290829282948296D6EF57
:100C700086F0000E0F6E000E106E000E116E000E4C
:100C8000126E59C013F05AC014F05BC015F05CC06E
:100C900016F0AAEC9AF0D8A050EF86F052EF86F04A
:100CA000FFEF84F0010E00016E6F020E13EC9DF059
:100CB000030E13EC9DF0040E13EC9DF0030E046E76
:100CC000320EEDEC9EF059C001F05AC002F05BC04C
:100CD00003F05CC004F027EC9AF001C02CF002C0D5
:100CE0002DF003C02EF004C02FF0010E306EA0ECEA
:100CF00099F059C001F05AC002F05BC003F05CC02B
:100D000004F027EC9AF001C039F002C03AF080EC10
:100D10009EF0000E566E000E556E56BE99EF86F090
:100D2000565009E1500E555CD8A099EF86F09BEF24
:100D300086F09DEF86F0C6EF86F081B2A2EF86F0D6
:100D4000A4EF86F0AAEF86F0829082928294829637
:100D5000D6EF86F0020E526E040E516EBA0EE82ED9
:100D6000FED7512EFCD7522EFAD700D0554A562A1C
:100D700056BEC4EF86F0565009E1500E555CD8A01F
:100D8000C4EF86F0C6EF86F09DEF86F0574A582AEA
:100D900058BED4EF86F0585009E1100E575CD8A029
:100DA000D4EF86F0D6EF86F00CEF80F012002A6EBA
:100DB00000016E51D8A4DFEF86F0E1EF86F02DEF51
:100DC00087F069EC9FF0780E5FEC9FF0400E5FECCF
:100DD0009FF00A0E2A60EFEF86F0F1EF86F019EF30
:100DE00087F00F0E2A26000E296E2A50050DCD0E13
:100DF000166EFB0E176EF3501626F450172229506C
:100E00001626000E172216C0F6FF17C0F7FF0800BF
:100E1000F5505FEC9FF0292A040E296412EF87F049
:100E200014EF87F0F5EF86F0000E5FEC9FF027EFF0
:100E300087F0000E286E000E5FEC9FF0282A050E4A
:100E4000286425EF87F027EF87F01BEF87F065EC2C
:100E50009FF0060E5F2658EF89F06E05D8A433EF99
:100E600087F035EF87F04EEF87F0090E2A643BEFED
:100E700087F03DEF87F043EF87F0000E196E200EEC
:100E8000186E49EF87F0300E2A24186E196A000E8A
:100E9000192218509BEC8FF058EF89F0020E6E1952
:100EA000D8A455EF87F057EF87F023EF88F00A0EAC
:100EB0002A605DEF87F05FEF87F0D4EF87F069512C
:100EC000B00F27EC9FF05F500F0B27EC9FF05F38BF
:100ED0000F0B100927EC9FF069EC9FF0780E5FEC88
:100EE0009FF0400E5FEC9FF0000E2B6E2A50200DFD
:100EF000A30E166EFD0E176EF3501626F450172231
:100F00002B501626000E172216C0F6FF17C0F7FF4B
:100F10000800F5505FEC9FF02B2A0F0E2B6493EF27
:100F200087F095EF87F076EF87F065EC9FF0000192
:100F30006951B10F27EC9FF05F500F0B27EC9FF02A
:100F40005F380F0B100927EC9FF069EC9FF0780ECB
:100F50005FEC9FF0400E5FEC9FF01F0E2B64B3EF31
:100F600087F0B5EF87F0B7EF87F0D0EF87F02A5022
:100F7000200DA30E166EFD0E176EF3501626F450BC
:100F800017222B501626000E172216C0F6FF17C088
:100F9000F7FF0800F5505FEC9FF02B2AADEF87F0CC
:100FA00065EC9FF01FEF88F06951B00F27EC9FF0C0
:100FB0005F500F0B27EC9FF05F380F0B100927ECE9
:100FC0009FF069EC9FF0780E5FEC9FF0400E5FECB5
:100FD0009FF0100E2B6E000E5FEC9FF02B062B5037
:100FE000D8A4F5EF87F0F7EF87F0EBEF87F065EC2B
:100FF0009FF000016951B10F27EC9FF05F500F0B7C
:1010000027EC9FF05F380F0B100927EC9FF069EC7D
:101010009FF0780E5FEC9FF0400E5FEC9FF0100E9B
:101020002B6E000E5FEC9FF02B062B50D8A41BEF0D
:1010300088F01DEF88F011EF88F0D0EF87F0100EE8
:101040005F2658EF89F00A0E2A6029EF88F02BEF0F
:1010500088F0E5EF88F06951B00F27EC9FF05F5002
:101060000F0B27EC9FF05F380F0B100927EC9FF058
:1010700069EC9FF0780E5FEC9FF0400E5FEC9FF004
:10108000000E2B6E2A50300DED0E166EF90E176EF7
:10109000F3501626F45017222B50030DF35016264A
:1010A000F450172216C0F6FF17C0F7FF0800F550DE
:1010B0005FEC9FF02B2A0F0E2B6461EF88F063EF3B
:1010C00088F042EF88F065EC9FF000016951B10FA4
:1010D00027EC9FF05F500F0B27EC9FF05F380F0B52
:1010E000100927EC9FF069EC9FF0780E5FEC9FF001
:1010F000400E5FEC9FF0000E2B6E2A50300DED0E6F
:10110000166EF90E176EF3501626F45017222B5058
:10111000030DF3501626F4501722010E1626000E6A
:10112000172216C0F6FF17C0F7FF0800F5505FEC56
:101130009FF02B2A0F0E2B64A0EF88F0A2EF88F00F
:101140007DEF88F065EC9FF000016951B20F27EC4C
:101150009FF05F500F0B27EC9FF05F380F0B1009CB
:1011600027EC9FF069EC9FF0780E5FEC9FF0400E4B
:101170005FEC9FF0000E2B6E2A50300DED0E166EB8
:10118000F90E176EF3501626F45017222B50030D4C
:10119000F3501626F4501722020E1626000E1722C0
:1011A00016C0F6FF17C0F7FF0800F5505FEC9FF080
:1011B0002B2A0F0E2B64DFEF88F0E1EF88F0BCEFF5
:1011C00088F065EC9FF056EF89F06951B00F27EC7D
:1011D0009FF05F500F0B27EC9FF05F380F0B10094B
:1011E00027EC9FF069EC9FF0780E5FEC9FF0400ECB
:1011F0005FEC9FF0100E2B6E000E5FEC9FF02B0645
:101200002B50D8A406EF89F008EF89F0FCEF88F0A6
:1012100065EC9FF000016951B10F27EC9FF05F5022
:101220000F0B27EC9FF05F380F0B100927EC9FF096
:1012300069EC9FF0780E5FEC9FF0400E5FEC9FF042
:10124000100E2B6E000E5FEC9FF02B062B50D8A4D7
:101250002CEF89F02EEF89F022EF89F065EC9FF0FA
:1012600000016951B20F27EC9FF05F500F0B27EC84
:101270009FF05F380F0B100927EC9FF069EC9FF08F
:10128000780E5FEC9FF0400E5FEC9FF0100E2B6E1F
:10129000000E5FEC9FF02B062B50D8A452EF89F084
:1012A00054EF89F048EF89F0E1EF88F01FEF88F004
:1012B00012000450800B0D6E045004240F6E03AE18
:1012C00064EF89F066EF89F067EF89F00F800F50C7
:1012D000D8B46DEF89F06FEF89F084EF89F00F28B3
:1012E000D8A475EF89F077EF89F07FEF89F0000ED1
:1012F000016E000E026E000E036E000E046E038E71
:10130000000E046E8CEF89F0000E016E000E026E6E
:10131000000E036E000E046E0850800B0E6E0D5012
:101320000E18D8B496EF89F098EF89F099EF89F00C
:101330000D8C085008240E6E07AEA1EF89F0A3EFC4
:1013400089F0A4EF89F00E800E50D8B4AAEF89F08E
:10135000ACEF89F0C1EF89F00E28D8A4B2EF89F084
:10136000B4EF89F0BCEF89F0000E056E000E066E3A
:10137000000E076E000E086E078E000E086EC9EF95
:1013800089F0000E056E000E066E000E076E000E50
:10139000086E0F500E5CD8B0D0EF89F0D2EF89F014
:1013A000F9EF89F00DACD7EF89F0D9EF89F0DBEFD9
:1013B00089F0800E0D1A0FC010F00EC00FF010C093
:1013C0000EF001C010F005C001F010C005F002C021
:1013D00010F006C002F010C006F003C010F007C005
:1013E00003F010C007F004C010F008C004F010C0F3
:1013F00008F0000E106E0F500EC009F00A6A095E68
:10140000000E0A5A0ABE0EEF8AF00A5009E11A0EBF
:10141000095CD8A00EEF8AF010EF8AF047EF8AF04F
:101420000150021003100410D8A419EF8AF01CEF29
:101430008AF0010E1DEF8AF0000E106E000E016E94
:10144000000E026E000E036E000E046E0EC00FF052
:1014500050EF8AF010A02FEF8AF031EF8AF037EFCB
:101460008AF0D89010300109106E39EF8AF0D890C8
:10147000103201A03EEF8AF040EF8AF041EF8AF08F
:10148000108E043404320332023201320F2A0E501D
:101490000F5CD8A04EEF8AF050EF8AF02AEF8AF066
:1014A0000DBC55EF8AF057EF8AF097EF8AF00F5096
:1014B000D8A45DEF8AF05FEF8AF069EF8AF0000E42
:1014C000016E000E026E000E036E000E046EB8EF89
:1014D0008BF00550012606500222075003220850C7
:1014E000042204A076EF8AF078EF8AF024EF8BF0E4
:1014F00010A07DEF8AF07FEF8AF085EF8AF0D89018
:1015000010300109106E87EF8AF0D890103201A0D8
:101510008CEF8AF08EEF8AF08FEF8AF0108E043411
:1015200004320332023201320F2A24EF8BF00550CD
:10153000015C06500258075003580450800A096E97
:101540000850800A0958D8B0A8EF8AF0AAEF8AF0AC
:10155000D5EF8AF00150055C096E025006580A6EFC
:10156000035007580B6E045008580C6EFF0E0924E8
:10157000016EFF0E0A20026EFF0E0B20036EFF0E9F
:101580000C20046E800E0D1A106C1050D8A4CBEFF6
:101590008AF0CDEF8AF0DDEF8AF0010E0126000E11
:1015A000022203220422DDEF8AF00550015E06507C
:1015B000025A0750035A0850045A015002100310EF
:1015C0000410D8A4E6EF8AF0E8EF8AF01DEF8BF064
:1015D0001050D8A4EEEF8AF0F0EF8AF01DEF8BF0F8
:1015E000000E016E000E026E000E036E000E046E01
:1015F000B8EF8BF0D890013602360336043610AEC1
:1016000004EF8BF006EF8BF007EF8BF0018010A05A
:101610000CEF8BF00EEF8BF012EF8BF0D8801036C2
:1016200014EF8BF0D89010360F50D8B41AEF8BF01F
:101630001CEF8BF01DEF8BF00F0603AE22EF8BF04B
:1016400024EF8BF0FAEF8AF0000E0E6E10AE2BEF47
:101650008BF02DEF8BF045EF8BF010C009F07F0E73
:101660000916D8B436EF8BF038EF8BF03CEF8BF0E7
:10167000010E0E6E45EF8BF001A041EF8BF043EFB2
:101680008BF045EF8BF038EF8BF00E50D8B44BEF6A
:101690008BF04DEF8BF078EF8BF0010E0126000EF2
:1016A00002220322042204A058EF8BF05AEF8BF0A1
:1016B00078EF8BF001C009F002C00AF003C00BF014
:1016C00004C00CF00C340C320B320A32093209C05F
:1016D00001F00AC002F00BC003F00CC004F00F28A8
:1016E000D8B475EF8BF077EF8BF078EF8BF00F2A93
:1016F0000F28D8B47EEF8BF080EF8BF088EF8BF063
:101700000F50D8A486EF8BF088EF8BF09AEF8BF018
:10171000000E016E000E026E000E036E000E046ECF
:101720000F50D8A496EF8BF098EF8BF09AEF8BF0D8
:10173000000E0D6E0FA09FEF8BF0A1EF8BF0A4EFCA
:101740008BF0038EA5EF8BF0039ED8900F30046EC4
:101750000DAEADEF8BF0AFEF8BF0B0EF8BF0048EF2
:1017600001C001F002C002F003C003F004C004F0A5
:1017700012001950800B226E19501924286E18AED1
:10178000C4EF8BF0C6EF8BF0C7EF8BF028802850AA
:10179000D8B4CDEF8BF0CFEF8BF0E2EF8BF02828B1
:1017A000D8A4D5EF8BF0D7EF8BF0DFEF8BF0000EE6
:1017B000166E000E176E000E186E000E196E188E43
:1017C000EAEF8BF0000E166E000E176E000E186E0C
:1017D000000E196E1D50800B221A1D501D24276EFD
:1017E0001CAEF5EF8BF0F7EF8BF0F8EF8BF0278066
:1017F0002750D8B4FEEF8BF000EF8CF013EF8CF095
:101800002728D8A406EF8CF008EF8CF010EF8CF0AE
:10181000000E1A6E000E1B6E000E1C6E000E1D6E6A
:101820001C8E1BEF8CF0000E1A6E000E1B6E000E4D
:101830001C6E000E1D6E2750D8B421EF8CF023EFE4
:101840008CF02BEF8CF02850D8A429EF8CF02BEFE4
:101850008CF035EF8CF0000E166E000E176E000E39
:10186000186E000E196ECDEF8DF01C501602F3CFDE
:101870002DF0F4CF2EF02D50236E246A256A266AAF
:101880002E50296E2A6A2B6A2C6A1B501702F3CF3E
:101890002DF0F4CF2EF02D502326000E24222522E9
:1018A00026222E502926000E2A222B222C221A50C4
:1018B0001802F3CF2DF0F4CF2EF02D502326000E7A
:1018C0002422252226222E502926000E2A222B22CF
:1018D0002C2225C026F024C025F023C024F0236A42
:1018E0001A501702F3CF2DF0F4CF2EF02D502326EF
:1018F0002E502422000E2522000E26221B501602F6
:10190000F3CF2DF0F4CF2EF02D5023262E5024228D
:10191000000E2522000E262225C026F024C025F028
:1019200023C024F0236A1A501602F3CF2DF0F4CF0F
:101930002EF02D5023262E502422000E2522000E9C
:1019400026221C501702F3CF2DF0F4CF2EF02D508D
:1019500029262E502A22000E2B22000E2C221B504C
:101960001802F3CF2DF0F4CF2EF02D5029262E5053
:101970002A22000E2B22000E2C221C501802F3CF1C
:101980002DF0F4CF2EF02D501E6E2E501F6E206ABB
:10199000216A20C021F01FC020F01EC01FF01E6A67
:1019A0001E5029261F502A2220502B2221502C2243
:1019B00023C01EF024C01FF025C020F026C021F057
:1019C000190EE8EF8CF0D890213220321F321E32EF
:1019D000E82EE3EF8CF01E5029261F502A222050BB
:1019E0002B2221502C2225C026F024C025F023C014
:1019F00024F0236A275028C01EF01F6A1E26000EFE
:101A00001F22820E1E242D6EFF0E1F202E6E1EEF33
:101A10008DF0D89029362A362B362C3626AE13EF89
:101A20008DF015EF8DF016EF8DF02980D8902336CC
:101A30002436253626362D06D8A02E062BAE23EFCB
:101A40008DF025EF8DF009EF8DF0000E276E26AE9C
:101A50002CEF8DF02EEF8DF052EF8DF0FF0E231452
:101A60001E6EFF0E24141F6EFF0E2514206E7F0EB7
:101A70002614216E1E501F1020102110D8B443EFE1
:101A80008DF045EF8DF049EF8DF0010E276E52EF8E
:101A90008DF029A04EEF8DF050EF8DF052EF8DF0CC
:101AA00045EF8DF02750D8B458EF8DF05AEF8DF0F8
:101AB0007EEF8DF0010E2926000E2A222B222C22E9
:101AC0002CA065EF8DF067EF8DF07EEF8DF029C0D3
:101AD0001EF02AC01FF02BC020F02CC021F02134B2
:101AE000213220321F321E321EC029F01FC02AF0C0
:101AF00020C02BF021C02CF02D4A2E2A2EBE89EFBB
:101B00008DF02E5008E12D28D8A089EF8DF08BEFB5
:101B10008DF095EF8DF0000E296E000E2A6E800E6E
:101B20002B6E7F0E2C6EC3EF8DF02EBEA2EF8DF0CC
:101B30002E5006E12D04D8B0A0EF8DF0A2EF8DF06D
:101B4000AEEF8DF0000E296E000E2A6E000E2B6E89
:101B5000000E2C6E000E226EC3EF8DF02DC028F00B
:101B6000FF0E2916FF0E2A167F0E2B16000E2C16BE
:101B700028A0BDEF8DF0BFEF8DF0C0EF8DF02B8E64
:101B8000D89028302C6E22502C1229C016F02AC072
:101B900017F02BC018F02CC019F012003250800B37
:101BA0003F6E32503224466E31AED9EF8DF0DBEF0E
:101BB0008DF0DCEF8DF046804650D8B4E2EF8DF02A
:101BC000E4EF8DF0F9EF8DF04628D8A4EAEF8DF020
:101BD000ECEF8DF0F4EF8DF0000E2F6E000E306EF6
:101BE000000E316E000E326E318E000E326E01EF3D
:101BF0008EF0000E2F6E000E306E000E316E000E55
:101C0000326E3650800B3F1A36503624476E35AE52
:101C10000CEF8EF00EEF8EF00FEF8EF047804750F6
:101C2000D8B415EF8EF017EF8EF02CEF8EF047281A
:101C3000D8A41DEF8EF01FEF8EF027EF8EF0000E70
:101C4000336E000E346E000E356E000E366E358E1D
:101C5000000E366E34EF8EF0000E336E000E346ED2
:101C6000000E356E000E366E3350341035103610BF
:101C7000D8A43DEF8EF03FEF8EF057EF8EF0000EC0
:101C80002F6E000E306E000E316E000E326E800E22
:101C900031127F0E32123F5032122FC02FF030C05F
:101CA00030F031C031F032C032F09AEF8FF0465050
:101CB000D8A45DEF8EF05FEF8EF069EF8EF0000E2E
:101CC0002F6E000E306E000E316E000E326E9AEFE7
:101CD0008FF0475046C037F0386A375E000E385AEA
:101CE0007F0E3724406E000E3820416E2FC03BF02F
:101CF00030C03CF031C03DF032C03EF0000E2F6EDF
:101D0000000E306E000E316E000E326E000E426E0E
:101D1000000E436E000E446E000E456E000E476EC0
:101D2000CAEF8EF04750D8B498EF8EF09AEF8EF04D
:101D3000B1EF8EF0D8903B363C363D363E36D890EB
:101D40002F3630363136323645AEA9EF8EF0ABEF56
:101D50008EF0ACEF8EF02F80D8904236433644366A
:101D6000453633503B5C34503C5835503D58365026
:101D70003E58D8A0BEEF8EF0C0EF8EF0C9EF8EF0C7
:101D8000458C33503B5E34503C5A35503D5A3650AA
:101D90003E5A472A190E4764D0EF8EF0D2EF8EF0EC
:101DA00092EF8EF03B503C103D103E10D8B4DBEF6C
:101DB0008EF0DDEF8EF0F5EF8EF04280F5EF8EF0D5
:101DC000D8902F3630363136323645AEEAEF8EF0C7
:101DD000ECEF8EF0EDEF8EF02F80D8904236433648
:101DE000443645364006D8A0410631AEFAEF8EF0B3
:101DF000FCEF8EF0E0EF8EF0000E476E45AE03EF85
:101E00008FF005EF8FF029EF8FF0FF0E4214376E41
:101E1000FF0E4314386EFF0E4414396E7F0E4514C6
:101E20003A6E3750381039103A10D8B41AEF8FF094
:101E30001CEF8FF020EF8FF0010E476E29EF8FF02F
:101E40002FA025EF8FF027EF8FF029EF8FF01CEFF9
:101E50008FF04750D8B42FEF8FF031EF8FF055EF60
:101E60008FF0010E2F26000E30223122322232A0B6
:101E70003CEF8FF03EEF8FF055EF8FF02FC037F033
:101E800030C038F031C039F032C03AF03A343A322A
:101E900039323832373237C02FF038C030F039C0DD
:101EA00031F03AC032F0404A412A41BE60EF8FF033
:101EB000415008E14028D8A060EF8FF062EF8FF02A
:101EC0006DEF8FF0000E416E4068000E2F6E000E19
:101ED000306E000E316E000E326E41BE7AEF8FF022
:101EE000415006E14004D8B078EF8FF07AEF8FF0E0
:101EF00088EF8FF0000E416E000E406E000E2F6EC8
:101F0000000E306E000E316E000E326E000E3F6E0F
:101F100040C046F046A08FEF8FF091EF8FF094EF26
:101F20008FF0318E95EF8FF0319ED8904630326E23
:101F30004BEF8EF01200146E0A0E1418D8A4A3EF03
:101F40008FF0A5EF8FF0C0EF8FF000016E51D8B485
:101F5000ACEF8FF0AEEF8FF0B4EF8FF0000E096EA4
:101F6000020E086EB8EF8FF0000E096E010E086EBB
:101F700069510824046E000EEDEC9EF017EF91F00D
:101F80000D0E1418D8A4C7EF8FF0C9EF8FF0CDEF66
:101F90008FF0000E5F6E17EF91F000016E51D8A424
:101FA000D4EF8FF0D6EF8FF036EF90F069EC9FF022
:101FB000780E5FEC9FF0400E5FEC9FF0200E1464F3
:101FC000E4EF8FF0E6EF8FF016EF90F07F0E1460E5
:101FD000ECEF8FF0EEEF8FF016EF90F0210E145E25
:101FE000000E156E1450050DCD0E066EFB0E076E1D
:101FF000F3500626F450072215500626000E07223D
:1020000006C0F6FF07C0F7FF0800F5505FEC9FF031
:10201000152A040E15640FEF90F011EF90F0F2EF17
:102020008FF0000E5FEC9FF024EF90F0060E156E1F
:10203000000E5FEC9FF015061550D8A422EF90F02B
:1020400024EF90F018EF90F065EC9FF0060E5F26FD
:102050007F0E5F642EEF90F030EF90F017EF91F06D
:10206000000E5F6E0001692B17EF91F0200E1464D3
:102070003CEF90F03EEF90F0BDEF90F07F0E1460DB
:1020800044EF90F046EF90F0BDEF90F0210E145E1B
:102090006951B00F27EC9FF05F500F0B27EC9FF0BA
:1020A0005F380F0B100927EC9FF069EC9FF0780E5A
:1020B0005FEC9FF0400E5FEC9FF0000E156E145029
:1020C000100D1D0E066EF40E076EF3500626F4502A
:1020D000072215500626000E072206C0F6FF07C08D
:1020E000F7FF0800F5505FEC9FF0020E15260E0E6C
:1020F00015647DEF90F07FEF90F05FEF90F065EC6E
:102100009FF000016951B10F27EC9FF05F500F0B5A
:1021100027EC9FF05F380F0B100927EC9FF069EC5C
:102120009FF0780E5FEC9FF0400E5FEC9FF0010E89
:10213000156E1450100D1D0E066EF40E076EF35042
:102140000626F450072215500626000E072206C068
:10215000F6FF07C0F7FF0800F5505FEC9FF0020E96
:1021600015260F0E1564B7EF90F0B9EF90F099EFC8
:1021700090F065EC9FF008EF91F06951B00F27ECFB
:102180009FF05F500F0B27EC9FF05F380F0B10098B
:1021900027EC9FF069EC9FF0780E5FEC9FF0400E0B
:1021A0005FEC9FF0080E156E000E5FEC9FF01506B9
:1021B0001550D8A4DEEF90F0E0EF90F0D4EF90F05F
:1021C00065EC9FF000016951B10F27EC9FF05F5063
:1021D0000F0B27EC9FF05F380F0B100927EC9FF0D7
:1021E00069EC9FF0780E5FEC9FF0400E5FEC9FF083
:1021F000080E156E000E5FEC9FF015061550D8A462
:1022000004EF91F006EF91F0FAEF90F0B9EF90F053
:10221000090E5F267F0E5F6410EF91F012EF91F0D0
:1022200017EF91F0000E5F6E020E00016927120099
:10223000000E026E82848286030E016E980EE82ED6
:10224000FED7012EFCD7829482961A0E016EF80EEC
:10225000E82EFED7012EFCD700D0022A040E02641D
:1022600034EF91F036EF91F01AEF91F0000E026E1C
:1022700082848286080E016ECA0EE82EFED7012ED9
:10228000FCD7829482961A0E016EF80EE82EFED7C5
:10229000012EFCD700D0022A040E026452EF91F006
:1022A00054EF91F038EF91F0000E026E8284828636
:1022B0000D0E016EFC0EE82EFED7012EFCD7829487
:1022C00082961A0E016EF80EE82EFED7012EFCD76C
:1022D00000D0022A040E026470EF91F072EF91F0C8
:1022E00056EF91F0000E026E82848286130E016E0C
:1022F0002D0EE82EFED7012EFCD700F08294829698
:102300001A0E016EF80EE82EFED7012EFCD700D073
:10231000022A040E02648FEF91F091EF91F074EFB6
:1023200091F0000E026E82848286180E016E5F0E9E
:10233000E82EFED7012EFCD700F0829482961A0E6A
:10234000016EF80EE82EFED7012EFCD700D0022A2F
:10235000040E0264AEEF91F0B0EF91F093EF91F0C4
:10236000000E026E828482861D0E016E910EE82E92
:10237000FED7012EFCD700F0829482961A0E016ED1
:10238000F80EE82EFED7012EFCD700D0022A040E4C
:102390000264CDEF91F0CFEF91F0B2EF91F0000E2B
:1023A000026E82848286220E016EC30EE82EFED754
:1023B000012EFCD700F0829482961A0E016EF80E60
:1023C000E82EFED7012EFCD700D0022A040E0264AC
:1023D000ECEF91F0EEEF91F0D1EF91F0000E026E84
:1023E00082848286270E016EF50EE82EFED7012E1E
:1023F000FCD700F0829482961A0E016EF80EE82E39
:10240000FED7012EFCD700D0022A040E02640BEF87
:1024100092F00DEF92F0F0EF91F0000E026E8284D8
:1024200082862D0E016E260EE82EFED7012EFCD7D9
:1024300000D0829482961A0E016EF80EE82EFED716
:10244000012EFCD700D0022A040E02642AEF92F07B
:102450002CEF92F00FEF92F0000E026E82848286D3
:10246000320E016E580EE82EFED7012EFCD700D09A
:10247000829482961A0E016EF80EE82EFED7012E77
:10248000FCD700D0022A040E026449EF92F04BEF11
:1024900092F02EEF92F0000E026E82848286410E40
:1024A000016EEE0EE82EFED7012EFCD700D08294EE
:1024B00082961A0E016EF80EE82EFED7012EFCD77A
:1024C00000D0022A040E026468EF92F06AEF92F0E4
:1024D0004DEF92F0000E026E828482865B0E016EDA
:1024E000E80EE82EFED7012EFCD7829482961A0EB3
:1024F000016EF80EE82EFED7012EFCD700D0022A7E
:10250000040E026486EF92F088EF92F06CEF92F086
:10251000828482861200700ED36E000E806E000ED2
:10252000816E000E826E000E896E000E8A6E000EA5
:102530008B6E0F0E936E000E946E0F0148691F0E86
:10254000496F000E00016C6F020E28EC96F057ECFC
:102550009FF08294829682908292948E949CAD9801
:10256000AD9CAD8AAC9CAC88AC8E7E96AD940C0EC6
:10257000B06EC00EF26E9E9A200E9D6E060E5E6EBE
:10258000130E5D6EAE0EE82EFED75D2EFCD75E2ECE
:10259000FAD7F6EC96F000016D6F6D51D8A4D3EF29
:1025A00092F0D5EF92F0D7EF92F03AEC9EF00B0E4E
:1025B0005E6E260E5D6E5E0EE82EFED75D2EFCD79B
:1025C0005E2EFAD742EC9FF0E6EF92F0A2EC9EF07E
:1025D00000016C51D8A4EFEF92F0F1EF92F000EF10
:1025E00093F04DEC9FF000016D519EEC9CF0000EBD
:1025F000366E000E356EF3EC9BF0010E00016C6F31
:10260000020E5E6E040E5D6EBA0EE82EFED75D2ED3
:10261000FCD75E2EFAD700D0A2EC9EF081A013EF7B
:1026200093F015EF93F01EEF93F000016B05D8A423
:102630001CEF93F01EEF93F05DEF93F0000E00019E
:102640006B6F060E5E6E130E5D6EAE0EE82EFED73D
:102650005D2EFCD75E2EFAD7000E0AEC99F04DECF9
:102660009FF000016D519EEC9CF06F0E356E000ED8
:10267000366EB1EC97F04BEF93F0A2EC9EF081B286
:1026800044EF93F046EF93F04BEF93F0000E000110
:102690006C6FE6EF92F081B050EF93F052EF93F051
:1026A0003DEF93F000EC80F081A259EF93F05BEFE7
:1026B00093F054EF93F046EF93F081B262EF93F012
:1026C00064EF93F0E6EF92F0060E5E6E130E5D6E11
:1026D000AE0EE82EFED75D2EFCD75E2EFAD7000E8A
:1026E0000AEC99F04DEC9FF000016D519EEC9CF0CE
:1026F0000FEC9EF087EF93F0A2EC9EF081B283EF97
:1027000093F085EF93F087EF93F046EF93F081B06D
:102710008CEF93F08EEF93F07CEF93F055EC95F007
:1027200081A295EF93F097EF93F090EF93F046EF3F
:1027300093F000EF00F0000E80EC9DF00FC04CF025
:1027400010C04DF011C04EF012C04FF04CC011F04F
:102750004DC012F04EC013F04FC014F00A0E156EAB
:10276000D70E166E230E176E420E186E5DEC9EF09D
:1027700011C04CF012C04DF013C04EF014C04FF019
:102780004CC016F04DC017F04EC018F04FC019F0F5
:10279000000E1A6E000E1B6E7A0E1C6E440E1D6E1D
:1027A000B9EC8BF016C04CF017C04DF018C04EF0CD
:1027B00019C04FF04CC02FF04DC030F04EC031F07A
:1027C0004FC032F0000E336E000E346E800E356E48
:1027D000440E366ECEEC8DF02FC04CF030C04DF074
:1027E00031C04EF032C04FF04CC016F04DC017F063
:1027F0004EC018F04FC019F0000E1A6E000E1B6E7E
:10280000200E1C6E410E1D6EB9EC8BF016C04CF004
:1028100017C04DF018C04EF019C04FF04CC02FF04B
:102820004DC030F04EC031F04FC032F0000E336E6C
:10283000000E346EC00E356E410E366ECEEC8DF04D
:102840002FC04CF030C04DF031C04EF032C04FF0D0
:102850004CC011F04DC012F04EC013F04FC014F038
:1028600064C015F065C016F066C017F067C018F0B8
:102870005DEC9EF011C04CF012C04DF013C04EF054
:1028800014C04FF04FBE49EF94F047EF94F051EF72
:1028900094F0000E4C6E000E4D6E000E4E6E000E4B
:1028A0004F6E000E0F6E000E106EBE0E116E430EB8
:1028B000126E4CC013F04DC014F04EC015F04FC056
:1028C00016F0AAEC9AF0D8B068EF94F06AEF94F0A2
:1028D00072EF94F0000E4C6E000E4D6EBE0E4E6EFA
:1028E000430E4F6E4CC048F04DC049F04EC04AF008
:1028F0004FC04BF01200096E0950D8B482EF94F02B
:1029000084EF94F0A6EF94F004BE8BEF94F089EF7F
:1029100094F0A6EF94F001C005F002C006F003C0E9
:1029200007F004C008F0051E061E071E081E052A33
:10293000000E06220722082205C00BF006C00CF08C
:1029400007C00DF008C00EF0AEEF94F001C00BF020
:1029500002C00CF003C00DF004C00EF001500210D4
:1029600003100410D8A4B7EF94F0B9EF94F0C3EFBC
:1029700094F0000E016E000E026E000E036E000E4B
:10298000046E54EF95F0960E0A6ECDEF94F00A2A7D
:10299000D8900E320D320C320B32000E0B14056E35
:1029A000000E0C14066E000E0D14076EFE0E0E14B3
:1029B000086E0550061007100810D8A4E2EF94F036
:1029C000E4EF94F0C7EF94F0F2EF94F00A2A010ECE
:1029D0000B26000E0C220D220E22D8900E320D3244
:1029E0000C320B32000E0B14056E000E0C14066E2A
:1029F000000E0D14076EFF0E0E14086E0550061023
:102A000007100810D8A407EF95F009EF95F0E6EF4E
:102A100094F011EF95F00A06D8900B360C360D366F
:102A20000E360DBE16EF95F018EF95F020EF95F0ED
:102A3000020E0A601EEF95F020EF95F00BEF95F077
:102A40000AB025EF95F027EF95F028EF95F00D9E51
:102A5000D8900A320AC005F0066A076A086A05C0FB
:102A600008F0076A066A056A05500B1206500C1238
:102A700007500D1208500E120950D8B442EF95F0CD
:102A800044EF95F04CEF95F004BE4BEF95F049EF15
:102A900095F04CEF95F00E8E0BC001F00CC002F0DB
:102AA0000DC003F00EC004F012004DEC9FF0A2EC3C
:102AB0009EF000016D519EEC9CF06FC035F070C02F
:102AC00036F0E3EC9DF082808282828482869BECE9
:102AD00093F048C052F049C053F04AC054F04BC084
:102AE00055F0ACEF95F0080E516ECA0EE82EFED7E9
:102AF000512EFCD782948296340E516EF20EE82E3F
:102B0000FED7512EFCD7828482869BEC93F048C07E
:102B100052F049C053F04AC054F04BC055F052C077
:102B200001F053C002F054C003F055C004F027EC8C
:102B30009AF001C039F002C03AF080EC9EF081B208
:102B4000A4EF95F0A6EF95F0ACEF95F0829082920D
:102B50008294829627EF96F052C00FF053C010F087
:102B600054C011F055C012F06FC001F070C002F0F7
:102B7000000E02BEFF0E036E046E010E7BEC94F09D
:102B800001C013F002C014F003C015F004C016F029
:102B9000AAEC9AF0D8A0CFEF95F0D1EF95F073EFB3
:102BA00095F052C001F053C002F054C003F055C07C
:102BB00004F027EC9AF001C039F002C03AF080EC42
:102BC0009EF082948296829082920EEF96F09BEC19
:102BD00093F048C052F049C053F04AC054F04BC083
:102BE00055F052C001F053C002F054C003F055C07C
:102BF00004F027EC9AF001C039F002C03AF080EC02
:102C00009EF081B206EF96F008EF96F00EEF96F088
:102C1000829082928294829627EF96F0000E0F6E39
:102C2000000E106E000E116E000E126E52C013F0E8
:102C300053C014F054C015F055C016F0AAEC9AF029
:102C4000D8A025EF96F027EF96F0E7EF95F0120069
:102C5000196EA00E0E6E860E0F6E010E106E000E17
:102C6000116EB5EC9DF01A0E166EF80EE82EFED71A
:102C7000162EFCD700D0AE0E27EC9FF0D50E27EC19
:102C80009FF0800E27EC9FF0A80E27EC9FF03F0EE0
:102C900027EC9FF0D30E27EC9FF0000E27EC9FF05F
:102CA000400E27EC9FF08D0E27EC9FF01904D8A45E
:102CB0005CEF96F05EEF96F063EF96F0100E27EC67
:102CC0009FF066EF96F0140E27EC9FF0200E27EC95
:102CD0009FF0000E27EC9FF0A10E27EC9FF0C80E8E
:102CE00027EC9FF0DA0E27EC9FF0120E27EC9FF0F6
:102CF000810E27EC9FF01904D8A481EF96F083EFA2
:102D000096F088EF96F09F0E27EC9FF08BEF96F0F1
:102D1000CF0E27EC9FF0D90E27EC9FF01904D8A412
:102D200094EF96F096EF96F09BEF96F0220E27EC3C
:102D30009FF09EEF96F0F10E27EC9FF0DB0E27EC54
:102D40009FF0400E27EC9FF0A40E27EC9FF0A60EFC
:102D500027EC9FF0AF0E27EC9FF00D0E166EFC0EC9
:102D6000E82EFED7162EFCD7000E27EC9FF0100E93
:102D700027EC9FF0400E27EC9FF0000E1A6E1A50C1
:102D8000B00F27EC9FF0000E27EC9FF0100E27EC01
:102D90009FF0000E176E69EC9FF0780E5FEC9FF0CD
:102DA000400E5FEC9FF0000E186E000E5FEC9FF07F
:102DB000182A0F0E1864DFEF96F0E1EF96F0D5EFCA
:102DC00096F065EC9FF0172A070E1764EAEF96F06D
:102DD000ECEF96F0CBEF96F01A2A070E1A64F3EF99
:102DE00096F0F5EF96F0BFEF96F01200330E1A6EE4
:102DF000330E1B6E530E1C6E400E1D6E010E80ECCA
:102E00009DF00FC016F010C017F011C018F012C0DE
:102E100019F0B9EC8BF016C048F017C049F018C093
:102E20004AF019C04BF0480E1A6EE10E1B6E220ECE
:102E30001C6E400E1D6E48C016F049C017F04AC007
:102E400018F04BC019F0B9EC8BF016C02FF017C07A
:102E500030F018C031F019C032F0000E336E000EA1
:102E6000346E800E356E440E366ECEEC8DF02FC073
:102E70004CF030C04DF031C04EF032C04FF0000E7B
:102E80000F6E000E106E040E116E410E126E4CC0CD
:102E900013F04DC014F04EC015F04FC016F0AAEC60
:102EA0009AF0D8B056EF97F058EF97F05BEF97F0A5
:102EB000040EB0EF97F0000E0F6E000E106E000EB5
:102EC000116E410E126E4CC013F04DC014F04EC086
:102ED00015F04FC016F0AAEC9AF0D8B072EF97F048
:102EE00074EF97F077EF97F0030EB0EF97F0000EC6
:102EF0000F6E000E106EF80E116E400E126E4CC06A
:102F000013F04DC014F04EC015F04FC016F0AAECEF
:102F10009AF0D8B08EEF97F090EF97F093EF97F08C
:102F2000020EB0EF97F0000E0F6E000E106EF00E56
:102F3000116E400E126E4CC013F04DC014F04EC016
:102F400015F04FC016F0AAEC9AF0D8B0AAEF97F09F
:102F5000ACEF97F0AFEF97F0010EB0EF97F0000EE7
:102F60001200000E00016E6F000E386E010E376EFB
:102F700037C004F0000EEDEC9EF037C02CF038C0E6
:102F80002DF0020E2E6E90EC9BF0290E9BEC8FF034
:102F900035C0D9FF36C0DAFFDECF2CF0DDCF2DF003
:102FA000030E2E6E90EC9BF0020E3526000E36229C
:102FB000374A382A38BEE6EF97F0385009E1070E55
:102FC000375CD8A0E6EF97F0E8EF97F0B8EF97F00E
:102FD00038BEF4EF97F0385009E10D0E375CD8A0F9
:102FE000F4EF97F0F6EF97F0F8EF97F01DEF98F009
:102FF0003750FA0F046E2E0EEDEC9EF037C02CF019
:1030000038C02DF0020E2E6E90EC9BF0290E9BEC3A
:103010008FF035C0D9FF36C0DAFFDECF2CF0DDCF20
:103020002DF0030E2E6E90EC9BF0020E3526000E56
:103030003622374A382AE8EF97F038BE29EF98F061
:10304000385009E1100E375CD8A029EF98F02BEF2B
:1030500098F02DEF98F052EF98F03750F40F046E7F
:103060005B0EEDEC9EF037C02CF038C02DF0020E58
:103070002E6E90EC9BF0290E9BEC8FF035C0D9FFA3
:1030800036C0DAFFDECF2CF0DDCF2DF0030E2E6E32
:1030900090EC9BF0020E3526000E3622374A382A75
:1030A0001DEF98F0070E046E000EEDEC9EF0990EE9
:1030B000166EFF0E176E140E186EC0EC9EF0120006
:1030C00082848286180E016E5F0EE82EFED7012ED6
:1030D000FCD700F0829482961A0E016EF80EE82E4C
:1030E000FED7012EFCD700D082848286150E016E99
:1030F000C60EE82EFED7012EFCD700D08294829611
:103100001A0E016EF80EE82EFED7012EFCD700D065
:1031100082848286130E016E2D0EE82EFED7012EBC
:10312000FCD700F0829482961A0E016EF80EE82EFB
:10313000FED7012EFCD700D082848286100E016E4D
:10314000940EE82EFED7012EFCD700D082948296F2
:103150001A0E016EF80EE82EFED7012EFCD700D015
:10316000828482860D0E016EFC0EE82EFED7012EA3
:10317000FCD7829482961A0E016EF80EE82EFED7C6
:10318000012EFCD700D0828482860B0E016E620E67
:10319000E82EFED7012EFCD700D0829482961A0E1C
:1031A000016EF80EE82EFED7012EFCD700D08284E7
:1031B0008286080E016ECA0EE82EFED7012EFCD7BD
:1031C000829482961A0E016EF80EE82EFED7012E1A
:1031D000FCD700D082848286060E016E300EE82E67
:1031E000FED7012EFCD700D0829482961A0E016E73
:1031F000F80EE82EFED7012EFCD700D082848286FE
:10320000030E016E980EE82EFED7012EFCD7829495
:1032100082961200016E0150D8A411EF99F013EFBD
:1032200099F056EF99F0000E00018E6F1E0E8D6F13
:10323000000E8C6F280E8B6F000E8A6F320E896F16
:10324000000E886F3C0E876F000E866F460E856FEE
:10325000000E846F500E836F000E826F5A0E816FC6
:10326000000E806F640E7F6F000E7E6F6E0E7D6F9E
:10327000000E7C6F780E7B6F000E7A6F820E796F76
:10328000000E786F8C0E776F000E766F960E756F4E
:10329000000E746FA00E736F000E726FAA0E716F26
:1032A000000E706FB40E6F6F9FEF99F00104D8A4F9
:1032B0005CEF99F05EEF99F09FEF99F0000E00013E
:1032C0008E6F1E0E8D6F000E8C6F000E8B6F000EBA
:1032D0008A6F000E896F000E886F000E876F000ED8
:1032E000866F000E856F000E846F000E836F000ED8
:1032F000826F000E816F000E806F000E7F6F000ED8
:103300007E6F000E7D6F000E7C6F000E7B6F000ED7
:103310007A6F000E796F000E786F000E776F000ED7
:10332000766F000E756F000E746F000E736F000ED7
:10333000726F000E716F000E706F000E6F6F1200D3
:10334000000E356ECA0E366E9A0E376E3B0E386E14
:103350000A0E346E2CC001F02DC002F02EC003F016
:103360002FC004F035C005F036C006F037C007F0B6
:1033700038C008F04CEC9CF00150336E3350016EB5
:10338000026A036A046A35C005F036C006F037C029
:1033900007F038C008F04BEC9DF001502C5E025055
:1033A0002D5A03502E5A04502F5A35C001F036C002
:1033B00002F037C003F038C004F00A0E056E000EAC
:1033C000066E000E076E000E086E4CEC9CF001C0FD
:1033D00035F002C036F003C037F004C038F0335087
:1033E000D8A4F5EF99F0F7EF99F018EF9AF0305074
:1033F000D8B4FDEF99F0FFEF99F018EF9AF035503F
:10340000361037103810D8B408EF9AF00AEF9AF057
:1034100018EF9AF03450305CD8A011EF9AF013EF07
:103420009AF01DEF9AF0FF0ED7EC86F01DEF9AF0A0
:10343000000E306E3350D7EC86F034063450D8A4EA
:1034400024EF9AF026EF9AF0AAEF99F012000334D5
:1034500004340A6E0A50D8A430EF9AF032EF9AF092
:103460003CEF9AF0000E016E000E026E000E036E2D
:10347000000E046EA9EF9AF001C005F002C006F03C
:1034800003C007F004C008F0200E4CEF9AF0D8906B
:103490000832073206320532E82E47EF9AF005501F
:1034A000096E038EFF0E0116FF0E0216FF0E0316A5
:1034B000000E0416960E0A5E0ABE63EF9AF061EFE4
:1034C0009AF079EF9AF00A50800A970FD8B06BEF14
:1034D0009AF06DEF9AF06FEF9AF032EF9AF0D89081
:1034E00004320332023201320A3E6FEF9AF091EF5A
:1034F0009AF01F0E0A647FEF9AF081EF9AF089EF3D
:103500009AF032EF9AF0D89001360236033604363C
:103510000A060A50D8A48FEF9AF091EF9AF083EF41
:103520009AF00950D8B497EF9AF099EF9AF0A1EF7A
:103530009AF0041E031E021E016C000E02220322DA
:10354000042201C001F002C002F003C003F004C075
:1035500004F01200000E0F14176E000E1014186EF7
:10356000800E1114196E7F0E12141A6E1750181057
:1035700019101A10D8A4BFEF9AF0C1EF9AF0C9EF52
:103580009AF0000E0F6E000E106E000E116E000EFF
:10359000126E000E1314176E000E1414186E800EA7
:1035A0001514196E7F0E16141A6E17501810191074
:1035B0001A10D8A4DEEF9AF0E0EF9AF0E8EF9AF054
:1035C000000E136E000E146E000E156E000E166EB9
:1035D00012AEEDEF9AF0EFEF9AF0F8EF9AF00F6C71
:1035E000101ED8B0102A111ED8B0112A800E125603
:1035F00016AEFDEF9AF0FFEF9AF008EF9BF0136C18
:10360000141ED8B0142A151ED8B0152A800E1656CE
:10361000000E0F1A000E101A000E111A800E121A48
:10362000000E131A000E141A000E151A800E161A28
:1036300013500F5C14501058155011581650125852
:10364000D8B025EF9BF027EF9BF02AEF9BF0D890A6
:103650002BEF9BF0D88012000A6E000E27EC9FF033
:10366000100E27EC9FF0400E27EC9FF0D890083208
:10367000D8900832D8900832D8900732D8900732C4
:10368000D8900732D8900632D8900632D8900632B9
:10369000000E0B6E81EF9BF00B500624B00F27EC51
:1036A0009FF00A500F0B27EC9FF00A380F0B100900
:1036B00027EC9FF0000E0C6E69EC9FF0780E5FEC2B
:1036C0009FF0400E5FEC9FF0000E096E6CEF9BF0D8
:1036D000000E5FEC9FF0092A0750095CD8A073EF39
:1036E0009BF075EF9BF068EF9BF065EC9FF00C2A68
:1036F000070E0C647EEF9BF080EF9BF05CEF9BF07D
:103700000B2A08500B5CD8A088EF9BF08AEF9BF047
:103710004CEF9BF0000E046E000EEDEC9EF01200DC
:10372000270E346E100E336E050E326E2CC001F073
:103730002DC002F033C003F034C004F0D9EC9CF08B
:103740000150316E31C001F0026A33C003F034C061
:1037500004F001EC9FF001502C5E02502D5A33C052
:1037600001F034C002F0000E046E0A0E036ED9ECB4
:103770009CF001C033F002C034F03150D8A4C3EF44
:103780009BF0C5EF9BF0E4EF9BF02E50D8B4CBEF4D
:103790009BF0CDEF9BF0E4EF9BF033503410D8B4A6
:1037A000D4EF9BF0D6EF9BF0E4EF9BF032502E5C11
:1037B000D8A0DDEF9BF0DFEF9BF0E9EF9BF0FF0E71
:1037C000D7EC86F0E9EF9BF0000E2E6E3150D7EC6F
:1037D00086F032063250D8A4F0EF9BF0F2EF9BF067
:1037E00096EF9BF01200010E00016E6F020E046E48
:1037F000250EEDEC9EF0E60E166EFF0E176E060E11
:10380000186EC0EC9EF0000E00016E6F060E046E86
:10381000000EEDEC9EF0CC0E166EFF0E176E080E2D
:10382000186EC0EC9EF035503610D8A41AEF9CF0FC
:103830001CEF9CF026EF9CF0DE0E166EFF0E176E4E
:10384000070E186EC0EC9EF036EF9CF035C02CF0E1
:1038500036C02DF0030E2E6E90EC9BF0F30E166E1C
:10386000FF0E176E050E186EC0EC9EF0070E046E6C
:10387000000EEDEC9EF0D50E166EFF0E176E080EC4
:10388000186EC0EC9EF0F90E166EFF0E176E040E49
:10389000186EC0EC9EF01200000E096E000E0A6E4B
:1038A000000E0B6E000E0C6E05500610071008106F
:1038B000D8B45DEF9CF05FEF9CF095EF9CF0010EAB
:1038C0000D6E69EF9CF0D89005360636073608363F
:1038D0000D2A08AE6EEF9CF070EF9CF063EF9CF049
:1038E000D89009360A360B360C360550015C065066
:1038F00002580750035808500458D8A082EF9CF093
:1039000084EF9CF08DEF9CF00550015E0650025A4A
:103910000750035A0850045A0980D89008320732D9
:10392000063205320D2E70EF9CF009C001F00AC07E
:1039300002F00BC003F00CC004F01200086E000E81
:10394000046E000EEDEC9EF069EC9FF0780E5FECDB
:103950009FF0400E5FEC9FF0000E0A6E000E096EA5
:103960000850100DE30E066EFE0E076EF35006268D
:10397000F4500722095006260A50072206C0F6FF17
:1039800007C0F7FF0800F5505FEC9FF0094A0A2ACC
:103990000ABED4EF9CF00A5009E1100E095CD8A0D1
:1039A000D4EF9CF0D6EF9CF0B0EF9CF065EC9FF06C
:1039B0001200000E066E000E056E03500410D8B4FF
:1039C000E4EF9CF0E6EF9CF00EEF9DF0010E076E29
:1039D000EEEF9CF0D89003360436072A04AEF3EFDE
:1039E0009CF0F5EF9CF0EAEF9CF0D8900536063697
:1039F0000350015C04500258D8A001EF9DF003EF82
:103A00009DF008EF9DF00350015E0450025A0580BE
:103A1000D89004320332072EF5EF9CF005C001F078
:103A200006C002F01200046E000E27EC9FF0100E8C
:103A300027EC9FF0400E27EC9FF00450B00F27ECCE
:103A40009FF0000E27EC9FF0100E27EC9FF0000E69
:103A5000056E69EC9FF0780E5FEC9FF0400E5FEC16
:103A60009FF0000E066E000E5FEC9FF0062A0F0E10
:103A700006643DEF9DF03FEF9DF033EF9DF065EC68
:103A80009FF0052A070E056448EF9DF04AEF9DF070
:103A900029EF9DF01200000E096E000E0A6E000E56
:103AA0000B6E000E0C6E01A058EF9DF05AEF9DF0CA
:103AB00062EF9DF00550092606500A2207500B229E
:103AC00008500C22D8900536063607360836D890AE
:103AD000043203320232013201500210031004108A
:103AE000D8A475EF9DF077EF9DF053EF9DF009C0DE
:103AF00001F00AC002F00BC003F00CC004F0120089
:103B0000156E030EC2161544E846FC0BC212C2B273
:103B10008CEF9DF08EEF9DF087EF9DF0C282C2B2D8
:103B200094EF9DF096EF9DF08FEF9DF0C350C4CFC2
:103B300013F0146A13C014F0136A1326000E142233
:103B400013C001F014C002F0000E02BEFF0E036E9F
:103B5000046E010E7BEC94F001C00FF002C010F077
:103B600003C011F004C012F01200280E726E000E95
:103B7000716E000E016E120E026E7A0E036E000E52
:103B8000046E0EC012F00FC013F010C014F011C07C
:103B900015F0020ED8901236133614361536E82E6C
:103BA000CAEF9DF012C005F013C006F014C007F074
:103BB00015C008F04CEC9CF00104746E800E736E1E
:103BC0009388938A1200000E00016E6F010E13ECB1
:103BD0009DF0010E046E280EEDEC9EF0ED0E166EBB
:103BE000FF0E176E050E186EC0EC9EF035C02CF05F
:103BF00036C02DF0030E2E6E90EC9BF0010E0001EE
:103C00006E6F060E046E2E0EEDEC9EF0F40E166E28
:103C1000FF0E176E040E186EC0EC9EF01200000E20
:103C200000016E6F030E046E000EEDEC9EF0830E2D
:103C3000166EFF0E176E150E186EC0EC9EF0040E79
:103C4000046E000EEDEC9EF0AE0E166EFF0E176EBB
:103C5000100E186EC0EC9EF0070E046E000EEDEC18
:103C60009EF0990E166EFF0E176E140E186EC0ECB5
:103C70009EF012004DEC9FF0D9EC9EF00B0E1B6EE7
:103C8000260E1A6E5E0EE82EFED71A2EFCD71B2EBD
:103C9000FAD7000E13EC9DF00B0E1B6E260E1A6E5B
:103CA0005E0EE82EFED71A2EFCD71B2EFAD7000E7A
:103CB0009EEC9CF03EEF9EF01200000E151A000ED6
:103CC000161A000E171A800E181A11C001F012C031
:103CD00002F013C003F014C004F015C005F016C0C4
:103CE00006F017C007F018C008F059EC89F001C0C1
:103CF00011F002C012F003C013F004C014F012005F
:103D0000010E00016E6F020E13EC9DF0030E13EC1A
:103D10009DF0040E13EC9DF0050E13EC9DF0030EC8
:103D2000046E320EEDEC9EF039C02CF03AC02DF04E
:103D3000000E2DBEFF0E2E6E2F6E010E306EA0EC0B
:103D400099F01200F6EC96F0506E00016D5150188B
:103D5000D8B4ADEF9EF0AFEF9EF0BFEF9EF050C035
:103D60006DF06D51D8A4B7EF9EF0B9EF9EF0BBEFA8
:103D70009EF03AEC9EF000016D519EEC9CF012001A
:103D8000000E196ECFEF9EF016C0F6FF17C0F7FFBA
:103D90000800F5509BEC8FF0164A172A192A185084
:103DA000195CD8A0D6EF9EF0D8EF9EF0C4EF9EF03D
:103DB0001200000E9EEC9CF0000E00016E6F040ECF
:103DC000046E1C0EEDEC9EF0BF0E166EFF0E176E0D
:103DD0000C0E186EC0EC9EF01200056E05C05FF070
:103DE00004C069F000016951B00F27EC9FF05F50EB
:103DF0000F0B27EC9FF05F380F0B100927EC9FF09B
:103E0000120001500302F3CF05F0F4CF06F0015089
:103E10000402F350062602500302F350062605C0A2
:103E200001F006C002F0120073B419EF9FF01BEF0F
:103E30009FF014EF9FF071CF01F01F0E0116D8A470
:103E400024EF9FF026EF9FF014EF9FF01200036E17
:103E500069EC9FF0780E5FEC9FF0000E5FEC9FF036
:103E600003505FEC9FF065EC9FF0120000EE60F0F5
:103E70002F0EEE6AE806FDE15F6A000EF86E0001A3
:103E80008BEF92F09BEC93F048C064F049C065F072
:103E90004AC066F04BC067F01200000E066E800E3E
:103EA000076E400E086E000E2CEC9BF0120092681C
:103EB000910EC16EF00E0F014817C2801200026E03
:103EC00014EC9FF002C075FF120014EC9FF0718497
:0A3ED000120014EC9FF07180120044
:08FFF800BEF458FFF1FEFFF317
:00000001FF
